:100000000C94D4000C94FC000C94FC000C94FC00A8
:100010000C94FC000C94FC000C94FC000C94FC0070
:100020000C94FC000C94E3060C9442040C94B10470
:100030000C94FC000C94FC000C94FC000C94FC0050
:100040000C94FC000C94FC000C94FC000C94FC0040
:100050000C94FC000C94FC000C94FC000C94F80331
:100060000C94FC000C94FC000C94FC000C94FC0020
:100070000C94FC000C94FC000C94FC000C94FC0010
:100080000C94FC000C94FC000C94FC000C94FC0000
:100090000C94FC000C94FC000C94FC000C94FC00F0
:1000A0000C94FC000C94FC000C94FC00000000007C
:1000B0002300260029002C002F0000000002000968
:1000C0000F0000030401000C00000000000000000D
:1000D0000000000000000000080B00020202000007
:1000E000090400000102020000052400100105249B
:1000F000010101042402060524060001070581030D
:1001000010004009040100020A0000000705020275
:1001100040000007058302400000040309041201A7
:100120000002EF0201404F1B069200010102030191
:10013000537061726B46756E00537061726B4675D9
:100140006E2050726F204D6963726F0000000000D6
:10015000250028002B002E003100000000002400A4
:1001600027002A002D0030000404040404030405C1
:100170000202020204030202020206060606060644
:10018000040402020204040408020110408040102A
:1001900020408040800802040180402010020110AD
:1001A0008010204040204A0711241FBECFEFDAE024
:1001B000DEBFCDBF21E0AEE3B1E001C01D92AF3B99
:1001C000B207E1F711E0A0E0B1E0E8E6F4E102C037
:1001D00005900D92AE33B107D9F710E0C4EDD0E031
:1001E00004C02197FE010E94BF09C33DD107C9F792
:1001F0000E945F070C94320A0C9400002FB7F89409
:1002000083E08093E9009091E800892F807295FF48
:1002100004C09091F20080E4891B2FBF0895FC0177
:100220008091BE01882311F13FB7F89482E080935A
:10023000E9002091F200822F90E01816190614F4BC
:1002400081E090E0882339F0289844E64093BD018E
:100250004091F1004083222339F02091F2002111D6
:1002600003C02BE62093E8003FBF08958FEF9FEF78
:100270000895CF93DF9390E0FC01E957FE4F24915E
:1002800088599E4FFC0184918823C1F090E0880F2B
:10029000991FFC01E65AFE4FC591D491FC01E45B25
:1002A000FE4FA591B4919FB7F8943881822F809525
:1002B00083238883EC91E22BEC939FBFDF91CF9156
:1002C00008958091B50181110DC082E08093B10144
:1002D00084E08093B2011092B4011092B30181E0E6
:1002E0008093B50181EB91E008953FB7F894809138
:1002F000AD019091AE01A091AF01B091B00126B5D2
:10030000A89B05C02F3F19F00196A11DB11D3FBF4D
:10031000BA2FA92F982F8827BC01CD01620F711D1C
:10032000811D911D42E0660F771F881F991F4A9516
:10033000D1F708954091A2015091A3012091A0010D
:100340003091A10142175307B4F49091E8009570E1
:10035000E1F39091E80092FD19C08093F100809143
:10036000A2019091A30101968F739927892B19F40B
:100370008EEF8093E8008091A2019091A3010196F5
:100380009093A3018093A20181E0089580E00895F5
:10039000EF92FF920F931F93CF93DF93F82E192FB5
:1003A000E62E042F81E0860F880F0E949A0183E0D9
:1003B0000E949A01CF2DD12FEC0EFD2EF11CCE15EF
:1003C000DF05B9F007FF13C0FE0184910E949A0176
:1003D000182F80E00E949A01812321968111EFCF8E
:1003E000DF91CF911F910F91FF90EF900895888139
:1003F000EDCF81E0F5CFDF92EF92FF920F931F9345
:10040000CF93DF93D82E8A01EB017B01E40EF51E1A
:10041000CE15DF0559F0D7FE12C0FE0184910E946F
:100420009A0121968111F4CF0FEF1FEFC801DF91E0
:10043000CF911F910F91FF90EF90DF9008958881E9
:10044000EECF0F931F93CF93DF931F92CDB7DEB7FD
:1004500082E0898342E450E068ED70E080E80E9429
:10046000FB010E946101DC0112960D911C910115A6
:10047000110589F0D801ED91FC910280F381E02D06
:10048000BE016F5F7F4FC801099597FD04C0F80159
:1004900000851185ECCF89810F90DF91CF911F915D
:1004A0000F910895615030F02091F100FC012083FC
:1004B0000196F8CF289884E68093BD0108954F9265
:1004C0005F926F927F928F929F92AF92BF92CF92E4
:1004D000DF92EF92FF920F931F93CF93DF936C0104
:1004E0007B018A0180911B01882309F467C08091F8
:1004F000BE01882309F462C08091A60180FF05C077
:100500008091E00082608093E000E801B12C8AEFE6
:10051000A82E93E0892E2AE3922E209719F4BB206F
:1005200009F445C00E94FE00811114C0AA94AA20BB
:1005300009F444C00E9475012B013C010E94750121
:100540006419750986099709683E7340810591050C
:1005500020F7F4CF8C171D0611F00CF08C2F9FB7ED
:10056000F8948092E9002091E80025FD02C09FBF29
:10057000D4CF282F30E0C21BD30BF701815020F0DD
:1005800041914093F100FACFE20EF31EBB2021F01F
:100590009092E800B12CEBCF8091E80085FDE7CF89
:1005A0009092E800BB24B394209709F3F3CF5D98B1
:1005B00084E68093A701101611063CF081E090E0DC
:1005C000F6019383828310E000E0C801DF91CF91B0
:1005D0001F910F91FF90EF90DF90CF90BF90AF9061
:1005E0009F908F907F906F905F904F900895CF93E2
:1005F000DF931F92CDB7DEB76983DC01ED91FC91EB
:100600000280F381E02D41E050E0BE016F5F7F4F3B
:1006100009950F90DF91CF91089583E08093E900D1
:100620008091F200882319F08AE38093E80008950E
:100630000E94FE0090E00895CF93DF931F92CDB704
:10064000DEB7FC018485958597FD08C02FEF3FEF4D
:10065000358724870F90DF91CF910895CE010196C1
:100660000E940F01019719F4898190E0F3CF8FEF79
:100670009FEFF0CF0F931F93CF93DF931F92CDB7D0
:10068000DEB78C01FC018485958597FF0BC0CE01F8
:1006900001960E940F01019771F4898190E0F801A1
:1006A00095878487F801848595850F90DF91CF9198
:1006B0001F910F9108958FEF9FEFF1CFFC0184857B
:1006C000958597FD0BC09FB7F89482E08093E90071
:1006D0008091F2009FBF90E0019608959FB7F89433
:1006E00082E08093E9008091F2009FBF90E008953E
:1006F0000895E2ECF0E09491EFE8F1E02491E0E776
:10070000F1E08491811117C02BED35E54CE95EEBEA
:100710006091460170914701809148019091490193
:100720000E94C60960934601709347018093480177
:100730009093490108959923E9F091509F30D0F4A6
:10074000E92FF0E0EA55FC4F0C94BF09D303D7031F
:10075000B503CB03CF03BA03BA03BA03DA03E0034A
:10076000E403E803EE03BA03F203909180009F775D
:1007700090938000E82FF0E0EE0FFF1FE455FF4F4D
:10078000A591B491EC912E2309F4BECF2BED35E564
:100790004CE95EE3BDCF909180009F7DE9CF9091C1
:1007A0008000977FE5CF94B59F7794BDE3CF94B554
:1007B0009F7DFBCF909190009F7790939000DACF30
:1007C000909190009F7DF9CF90919000977FF5CF09
:1007D0009091C0009F779093C000CCCF9091C000C3
:1007E0009F7DF9CF9091C200977F9093C200C2CFB6
:1007F0001F920F920FB60F9211242F933F938F9356
:100800009F93AF93BF938091A9019091AA01A0916A
:10081000AB01B091AC013091A80123E0230F2D373B
:1008200058F50196A11DB11D2093A8018093A9013F
:100830009093AA01A093AB01B093AC018091AD015C
:100840009091AE01A091AF01B091B0010196A11DB0
:10085000B11D8093AD019093AE01A093AF01B09311
:10086000B001BF91AF919F918F913F912F910F90C8
:100870000FBE0F901F90189526E8230F0296A11D1A
:10088000B11DD2CF1F920F920FB60F9211248F93EA
:100890009F938091E1009091E100937F9093E1001C
:1008A00083FF0FC01092E90091E09093EB0010924B
:1008B000EC0092E39093ED001092BE0198E09093CB
:1008C000F00082FF22C093E09093E9009091F20043
:1008D000992319F09AE39093E8009091A701992346
:1008E00041F09091A70191509093A701911101C0FF
:1008F0005D9A9091BD01992341F09091BD01915075
:100900009093BD01911101C0289A84FF18C0809175
:10091000E2008E7E81608093E2008091E1008F7E14
:100920008093E1008091A6018E7E80618093A60174
:100930009F918F910F900FBE0F901F90189580FF81
:10094000F7CF8091E2008E7E80618093E2008091FB
:10095000E1008E7E8093E1008091A6018E7E816011
:10096000E5CF1F920F920FB60F921124CF92DF9214
:10097000EF92FF920F931F932F933F934F935F93A9
:100980006F937F938F939F93AF93BF93EF93FF9357
:10099000CF93DF93CDB7DEB76C97DEBFCDBF10929C
:1009A000E9008091E80083FF25C068E0CE0145960C
:1009B0000E94520282EF8093E8008D8987FF39C040
:1009C0009091E80090FFFCCF982F907609F034C109
:1009D0009E894F89588D2F89F88C911131C08038AC
:1009E00061F58091A5018093F1001092F1008EEFE6
:1009F0008093E8006C960FB6F894DEBF0FBECDBFB3
:100A0000DF91CF91FF91EF91BF91AF919F918F9126
:100A10007F916F915F914F913F912F911F910F9116
:100A2000FF90EF90DF90CF900F900FBE0F901F9030
:100A300018959EEF9093E800C7CF1092F100D5CFA4
:100A4000913059F48111D3CF4130510581F6809115
:100A5000A5018D7F8093A501CACF933049F4811100
:100A6000C6CF4130510519F68091A5018260F2CFC1
:100A7000953041F48091E80080FFFCCF20682093FE
:100A8000E300B5CF963009F0A9C00B8D1C8D22E094
:100A90001092E9001092A3011092A201F2122EC04E
:100AA0001092A1011092A0010E9421021F8299E0E0
:100AB0009983FA8291E09E8390EA98879AEF9987CA
:100AC0002091A2013091A301275F3F4F3C832B83EC
:100AD0008D831092E9001092A3011092A20110934D
:100AE000A1010093A00149E050E0BE016F5F7F4F7C
:100AF00080E00E94FB010E94210279CF1093A101A6
:100B00000093A0010E946101DC0112960D911C91DD
:100B10000115110509F451C1D801ED91FC91048032
:100B2000F581E02DBE016B5E7F4FC80109950097EE
:100B300009F03EC1F80100851185EACFF3E0FF120C
:100B40000EC08F89882309F440C0823061F440E8E8
:100B500062E189E391E00E94C801811148CF81E2FE
:100B60008093EB0047CF813029F440E868E080E3D0
:100B700091E0F1CF833099F70E946101DC01129678
:100B8000ED90FC908E010F5F1F4F6801E114F1049E
:100B900079F0D701ED91FC910680F781E02DB80145
:100BA000C7010995080F111DF701E084F184EECF0C
:100BB000D8011C92F60101900020E9F73197BF019E
:100BC0006C197D0940E0C601C6CF6AE171E0FB0106
:100BD000449150E080E80E94FB0109CF973009F46E
:100BE000BECF983021F481E08093F10000CF99309E
:100BF00009F0FDCE837009F0B2CFE7E3F1E081E0C8
:100C000031E096E32191222371F08093E900309343
:100C1000EB00DF0111972C912093EC009093ED00F5
:100C20008F5F873079F78EE78093EA001092EA00B1
:100C30008F898093BE01DBCE8B8D9C8D1092E90055
:100C40001092A3011092A2019093A1018093A001A0
:100C5000898D811192C08E899D89913A49F48132A2
:100C600009F07DCF47E050E064E171E080E0B3CF70
:100C7000913209F074CF833269F48F89988DB0E096
:100C8000A0E08093100190931101A0931201B09302
:100C90001301ADCE803269F48091E80082FFFCCF71
:100CA00067E084E191E00E9452028BEF8093E800BC
:100CB0009ECE823209F09BCE8F8980931B01EEEF8E
:100CC000FFE7859194918B3F9C4D51F1E0E0F8E076
:100CD0008091140190911501A0911601B091170116
:100CE000803B9440A105B105F1F480911B0180FD8A
:100CF0001AC0EE3F8AE0F80789F587E797E7918306
:100D00008083809160008093A40188E19BE00FB60E
:100D1000F894A895809360000FBE9093600067CE12
:100D2000EEEFFAE0D5CF808191818737974709F0C0
:100D30005ECEA8958091600088618093600080916C
:100D4000A40180936000EE3F2AE0F20789F08091D1
:100D5000FE0A9091FF0A9183808349CE8081918120
:100D60008737980751F29093FF0A8093FE0AC5CF08
:100D70001092FF0A1092FE0A3ACE0E946101DC0135
:100D800012960D911C910115110509F4E8CED801B8
:100D9000ED91FC910190F081E02DBE016B5E7F4FE3
:100DA000C8010995811123CEF80100851185EBCF8B
:100DB000181619060CF41BCED2CEF1E0FF12BECEEF
:100DC0006EE171E004CF1F920F920FB60F921124C3
:100DD0002F933F934F935F936F937F938F939F9343
:100DE000AF93BF93CF93EF93FF9383B1C0914F0124
:100DF00090914E01C923982F9095C92380934F015C
:100E0000C4FF05C0E0910001F09101010995C5FF03
:100E100005C0E0910201F09103010995C6FF05C0EC
:100E2000E0910401F09105010995C7FF05C0E0912B
:100E30000601F09107010995C0FF05C0E091080186
:100E4000F09109010995C1FF05C0E0910A01F091F7
:100E50000B010995C2FF05C0E0910C01F0910D0155
:100E60000995C3FF05C0E0910E01F0910F010995AE
:100E7000FF91EF91CF91BF91AF919F918F917F9112
:100E80006F915F914F913F912F910F900FBE0F90F7
:100E90001F901895E0E5F1E01382128288EE93E04E
:100EA000A0E0B0E084839583A683B78388E291E0D5
:100EB000918380838FEF9FEF958784870895CF93E9
:100EC000DF93CDB7DEB72C970FB6F894DEBF0FBE19
:100ED000CDBF789484B5826084BD84B5816084BDC3
:100EE00085B5826085BD85B5816085BD80916E00C8
:100EF000816080936E0010928100809181008260F9
:100F00008093810080918100816080938100809135
:100F10008000816080938000809191008260809346
:100F20009100809191008160809391008091900068
:100F30008160809390008091C10084608093C100A3
:100F40008091C10082608093C1008091C100816066
:100F50008093C1008091C30081608093C300809121
:100F6000C00082608093C0008091C2008160809345
:100F7000C20080917A00846080937A0080917A0028
:100F8000826080937A0080917A00816080937A00F9
:100F900080917A00806880937A008FEF9FEF909322
:100FA0005D0180935C0187E00E94390186E00E9428
:100FB000390189E00E94390188E00E94390183E00B
:100FC0000E94390182E00E94390185E00E943901C6
:100FD00084E00E94390189E793E0909303018093B4
:100FE000020180914E01806280934E0183B1809313
:100FF0004F0180916B00806280936B00809168004C
:1010000081608093680088E0ECE1F1E0DE011196F8
:1010100001900D928A95E1F78E01035F1F4F80E5E5
:1010200091E00E945E03892BD1F380E591E00E945C
:101030001C03E82F9FEF9E0F943098F4E150FF0BB4
:10104000EE0FFF1F81E090E08C0F9D1FE80FF91F4E
:101050006081718144E050E080E591E00E945F0290
:10106000DECF8530B1F520914601309147014091A6
:1010700048015091490160914A0170914B01809162
:101080004C0190914D010E94C6092091420130917E
:10109000430140914401509145010E94C6092091AD
:1010A0003E0130913F0140914001509141010E9429
:1010B000C60920E030E040E85EE30E94010969874C
:1010C0007A878B879C8744E050E0BE01675F7F4F43
:1010D000C3CF823509F510924A0110924B0110924C
:1010E0004C0110924D01109246011092470110924E
:1010F000480110924901109242011092430110924E
:1011000044011092450110923E0110923F0110924D
:1011100040011092410183CF833509F080CF1986B9
:101120001A861B861C867E0199E0E90EF11C2FB7FA
:10113000F8948091A9019091AA01A091AB01B0917E
:10114000AC012FBF8093580190935901A0935A018D
:10115000B0935B0180E591E00E941C0397FF49C0BA
:101160002FB7F8948091A9019091AA01A091AB01A9
:10117000B091AC012FBF409158015091590160913D
:101180005A0170915B01841B950BA60BB70B409124
:101190005401509155016091560170915701841787
:1011A0009507A607B707B0F289859A85AB85BC85F8
:1011B00080934A0190934B01A0934C01B0934D0151
:1011C0008093460190934701A0934801B093490151
:1011D0008093420190934301A0934401B093450151
:1011E00080933E0190933F01A0934001B093410151
:1011F00016CFF70181937F010E171F0709F097CFD4
:10120000D3CF0E9414090C9485090E94770938F005
:101210000E947E0920F0952311F00C946E090C9425
:10122000740911240C94B9090E94960970F3959FD2
:10123000C1F3950F50E0551F629FF001729FBB27CD
:10124000F00DB11D639FAA27F00DB11DAA1F649F69
:101250006627B00DA11D661F829F2227B00DA11D1C
:10126000621F739FB00DA11D621F839FA00D611DA2
:10127000221F749F3327A00D611D231F849F600DC3
:10128000211D822F762F6A2F11249F5750409AF0EC
:10129000F1F088234AF0EE0FFF1FBB1F661F771F78
:1012A000881F91505040A9F79E3F510580F00C9443
:1012B0006E090C94B9095F3FE4F3983ED4F3869528
:1012C00077956795B795F795E7959F5FC1F7FE2BE3
:1012D000880F911D9695879597F9089597F99F67BF
:1012E00080E870E060E008959FEF80EC08950024AE
:1012F0000A941616170618060906089500240A947B
:1013000012161306140605060895092E0394000C00
:1013100011F4882352F0BB0F40F4BF2B11F460FF8F
:1013200004C06F5F7F4F8F4F9F4F089557FD9058B8
:10133000440F551F59F05F3F71F04795880F97FB99
:10134000991F61F09F3F79F0879508951216130653
:101350001406551FF2CF4695F1DF08C01616170682
:101360001806991FF1CF86957105610508940895B7
:10137000E894BB2766277727CB0197F90895EE0FEE
:10138000FF1F0590F491E02D09945058BB27AA2720
:101390000E94DD090C9485090E94770938F00E94AB
:1013A0007E0920F039F49F3F19F426F40C94740957
:1013B0000EF4E095E7FB0C946E09E92F0E94960964
:1013C00058F3BA17620773078407950720F079F47A
:1013D000A6F50C94B8090EF4E0950B2EBA2FA02DAB
:1013E0000B01B90190010C01CA01A0011124FF27D2
:1013F000591B99F0593F50F4503E68F11A16F040CD
:10140000A22F232F342F4427585FF3CF46953795CB
:101410002795A795F0405395C9F77EF41F16BA0B90
:10142000620B730B840BBAF09150A1F0FF0FBB1F3E
:10143000661F771F881FC2F70EC0BA0F621F731F87
:10144000841F48F4879577956795B795F7959E3FE4
:1014500008F0B0CF9395880F08F09927EE0F979575
:0814600087950895F894FFCF71
:10146800780378037803780378037803780378039C
:10147800FFFFFFFF00E10000000000004A014601F5
:1014880042013E0100000000F7025F0218030D034D
:0E1498005E031C033A0300C1808100000000C7
:00000001FF
